01000000001004290001PATINHO                                           
01000003923002250001BOLO DE MILHO VERDE REDONDO                       
01000002495001750001LINGUIÇA BRAGANÇA                                 
01000002875001045001PESSĘGO                                           
01000002059002390001CALABRESA PERDIGĂO                                
01000002526000350001BISCOITO GANGALHA 350G                            
01000002721000250001VERDURA                                           
01000003537001500001DOCE CASEIRO                                      
01000001883001690001SALSICHA SADIA                                    
01000002155001200001FERMENTO BIOLOGICO ( PEÇA)                        
01000003102000969001QUIABO                                            
01000002211000085001PAO INTEGRAL                                      
01000003217000699001CAQUI                                             
01000001880002950001APRESUNTADO SADIA KG                              
01000001881003990001PRESUNTO SADIA KG                                 
01000001882005490001MUSSARELA PAIOLZINHO KG                           
01000001884001490001SALSICHA AURORA KG                                
01000001885001690001SALSICHA PERDIGĂO KG                              
01000001886001950001MORTADELA MARBA KG                                
01000001887002750001MORTADELA OURO PERDIGĂO DEFUMADA                  
01000001927000070001PĂO DE SAL                                        
01000001928001399001PĂO DE SAL                                        
01000001929001990001CARTELA COM 30 OVOS                               
01000001954003550001AÇAFRAO CURCUMA MOIDO                             
01000001955005990001AÇUCAR DE COCO                                    
01000001891002990001CALABRESA SADIA                                   
01000001892005990001QUEIJO PRATO                                      
01000001893004550001QUEIJO FRESCAL COMEVAP                            
01000001894006350001QUEIJO MEIA CURA                                  
01000001895006950001QUEIJO RALADO PARMESĂO KG                         
01000001896006500001QUEIJO RALADO MUSSARELA                           
01000001897002690001LINGUIÇA TOSCANA SADIA                            
01000001898002690001LINGUIÇA TOSCANA AURORA                           
01000001899005490001PEITO DE PERU KG                                  
01000001900002690001EMPANADINHO DE FRANGO                             
01000001901001400001FARINHA DE ROSCA                                  
01000001902004000001FERMENTO P\ PĂO                                   
01000001903003690001BACON                                             
01000001904001290001PONTA DE FRIOS                                    
01000001905002990001MINI PĂO DE QUEIJO                                
01000001906000275001PĂO DE QUEIJO                                     
01000001907000249001CEBOLA                                            
01000001908003990001ALHO                                              
01000001909000400001BATATA                                            
01000001910003890001MUSSARELA                                         
01000001930001299001CARTELA C/ 12 OVOS                                
01000001931000650001CARTELA C/ 6 OVOS                                 
01000001912003500001ROSQUINHA SAMANTA                                 
01000001913000200001BOLO PEDAÇO                                       
01000001914000250001BOLO C\COBERTURA                                  
01000001915000850001BOLO DE CHOCOLATE                                 
01000001916000850001BOLO DE CENOURA                                   
01000001917000100001PAO DOCE                                          
01000001918000090001PĂO DOCE CARECA                                   
01000001919000200001BROA                                              
01000001920000250001SONHO                                             
01000001921000400001PĂO DE FRIOS                                      
01000001922000045001PĂO AMANHECIDO                                    
01000001923000500001MINI PĂO CARECA                                   
01000001924000600001MINI PĂO DOCE                                     
01000001925000550001EMPADA DE FRANGO                                  
01000001926000500001SALGADO                                           
01000001932000150001OVOS UNIDADE                                      
01000001956000999001AÇUCAR MASCAVO JOCAL                              
01000001957001590001AÇUCAR DEMERARA                                   
01000001958006950001ALHO EM FLOCOS DESIDATRADO                        
01000001959004450001ALHO EM PÓ                                        
01000001960005890001ALHO FRITO DESIDRATADO                            
01000001961005250001AMEIXA SEM CAROÇO                                 
01000001962002990001ALECRIM                                           
01000002014003650001GRANOLA C/ FRUTAS LIGHT                           
01000001963005350001AMENDOIN CROC SALSA\CEBOLA                        
01000001964004450001AMENDOIN CROCANTE                                 
01000001965004990001AMENDOIN CR PICANTE                               
01000001966004150001AMENDOIN OVINHO                                   
01000001967002775001AMENDOIM  C/ SAL S/ PELE TORRADO                  
01000001968003100001AMENDOIM  S/ SAL S/ PELE TORRADO                  
01000001969002990001AMENDOIM DOCE                                     
01000001970007490001AMENDOA TORRADA S/SAL                             
01000001971001250001AMIDO DE MILHO                                    
01000001972002490001AVEIA FLOCOS FINO                                 
01000001973001590001AVEIA FLOCOS GRAUDO                               
01000001974004850001BALA DELIKET GOMA                                 
01000001975003480001BALA DE GOMA                                      
01000001976007990001CHIPS BANANA SALG.                                
01000001977002690001BICARBONATO                                       
01000001978003650001CACAU EM PÓ 50%                                   
01000001979006490001CAMOMILA FLORES                                   
01000001980011200001CANELA EM CASCA                                   
01000001981003850001CANELA EM PÓ                                      
01000001982003990001CAPIM CIDREIRA                                    
01000001983009900001CASTANHA DE CAJU C\SAL                            
01000001984009900001CASTANHA CAJU S\SAL                               
01000001985012690001CASTANHA DO PARÁ                                  
01000001986003950001CHOCO BOOL  CEREAL ALCAFOODS                      
01000001987003290001CHÁ VERDE                                         
01000001988008950001CHIMI CHURRI                                      
01000001989004875001COCO RALADO FINO                                  
01000001990014900001COLAGENO EM PÓ                                    
01000001991004590001COLORIFICO                                        
01000001992002990001CREME DE CEBOLA                                   
01000001993012450001DAMASCO TURCO                                     
01000001994006950001ERITRITOL                                         
01000001995004990001ERVA DOCE                                         
01000001996002950001FRUT RINGS                                        
01000001997009800001FARINHA DE AMENDOA                                
01000001998002690001FARINHA DE AMENDOIN                               
01000001999001200001FARINHA ARROZ CRU                                 
01000002000001775001FARINHA DE AVEIA                                  
01000002001006350001FARINHA CASTANHA CAJU                             
01000002002003350001FARINHA DE COCO                                   
01000002003002690001FARINHA LINHAÇA DOURADA                           
01000002004002680001FIBRA MARACUJA                                    
01000002005001150001FAR TRIGO INTEGRAL                                
01000002006001490001FARELO DE AVEIA                                   
01000002007002150001FAR.LINHAÇA MARRON                                
01000002015002690001GRANOLA C\FRUTAS                                  
01000002016002590001GIRASSOL SEM CASCA                                
01000002017008990001HIBISCO FLOR                                      
01000002008002450001FAR/GRAO BICO                                     
01000002009001550001FECULA DE BATATA                                  
01000002010004150001FUMAÇA EM PÓ                                      
01000002011005000001FAR/MACA PERUANA                                  
01000002012006150001GERGILIN DESPELICULADO                            
01000002013004250001GRANOLA BIOSOFT                                   
01000002018009900001LEMON PEPPER TRADICIONAL                          
01000002019002800001LENTILHA CANADENSE                                
01000002020009490001LIMĂO/ERVAS FINAS                                 
01000002021001850001LINHAÇA MARRON                                    
01000002022001990001LINHAÇA DOURADA                                   
01000002023006800001MILHO DEFUMADO                                    
01000002024007400001MILHO BARBECUE                                    
01000002025014500001NOZ DE MACADAMIA S\ SAL                           
01000002026009150001NOZES MARIPOSA                                    
01000002027004990001OREGANO                                           
01000002028003750001PAPRICA DOCE                                      
01000002029003990001PAPRICA DOCE DEFUMADA                             
01000002030003400001PAPRICA PICANTE                                   
01000002031003990001PAPRICA PICANTE DEF                               
01000002032004750001PIMENTA DO REINO                                  
01000002033001990001POLVILHO DOCE                                     
01000002034001050001POLVILHO AZEDO                                    
01000002035018900001PSYLLIUM                                          
01000002036001550001SENE EM FOLHAS                                    
01000002037003100001PTS GRANULADO GALINHA                             
01000002038000650001SAL DE HIMALAIA FINO                              
01000002039003200001SAL MARINHO                                       
01000002040008200001SEMENTE DE CHIA                                   
01000002041005790001SALSA/CEBOLA/TOMATE                               
01000002042004300001TAMARA SEM CAROÇO                                 
01000002043009000001TEMPERO ANA MARIA                                 
01000002044001750001TEMPERO BAIANO                                    
01000002045004400001TEMPERO EDU GUEDES                                
01000002046004490001UVA PASSA S/SEMENTE                               
01000002047005490001VINAGRETE EM FLOCOS                               
01000002048002890001XEREM DE AMENDOIM                                 
01000002049007500001ALHO /CEBOLA/SALSA                                
01000002050008700001XILITOL                                           
01000002054000450001PAO DE MILHO                                      
01000002055000450001PAO DE MILHO                                      
01000002056000750001PAO SOVADO                                        
01000002057000150001PĂO DE HAMBURGUER                                 
01000002058000050001PAO AMANTEGADO                                    
01000002156001500001FERMENTO BIOLOGIO(PEÇA)                           
01000002154001200001FERMENTO BIOLOGICO                                
01000002210000700001PĂO INTEGRAL                                      
01000002463002690001LINGUIÇA PERDIGĂO NA BRASA                        
01000002876000799001BROCOLIS                                          
01000002464003690001AMORA SEM ESPINHO                                 
01000002465004650001ARROZ NEGRO                                       
01000002466003990001CEBOLA EM PÓ                                      
01000002467006990001CHA DE CAVALINHA                                  
01000002468004390001CHA DE MELISSA                                    
01000002469003250001COMINHO EM PÓ                                     
01000002470003590001CRAVO EM PÓ                                       
01000002471018150001CRAVO                                             
01000002498003190001CONFETE                                           
01000002472003500001GENGIBRE EM PÓ                                    
01000002473002250001HORTELĂ EM FLOCOS                                 
01000002474007100001LOURO EM FOLHA                                    
01000002475013990001MIX DE CASTANHA                                   
01000002476007990001NOZ MOSCADA EM PÓ                                 
01000002477004350001PIMENTA CALABRESA EM FLOCOS                       
01000002478005600001PIMENTA DO REINO EM GRĂO                          
01000002479003150001QUINOA EM GRĂO                                    
01000002480005500001SEMENTE DE ABOBORA S/CASCA                        
01000002481001990001PTS GRANULADO CARAMELO                            
01000002503000600001PCT PAO DE HAMBURGUER 4UN                         
01000002537004990001MARSHMALLOWS RECHEADO                             
01000002552006720001QUEIJO COALHO COMEVAP                             
01000002538004990001MARSHMALLOWS                                      
01000002553000399001LIMĂO                                             
01000002722000350001TORRADA                                           
01000002571000100001MINI PALITO DE QUEIJO                             
01000002850001469001AMEIXA                                            
01000002449000500001HAMBURGAO                                         
01000002806001400001CHOCOTONE                                         
01000002654005500001QUIJO MINAS SANTIAGO                              
01000002655005500001QUEIJO MINAS SANTIAGO                             
01000002664004950001AMARANTO EM GRĂO                                  
01000002665013500001CHA DE BOLDO                                      
01000002800000799001BOLO                                              
01000002666032000001CARDAMONO                                         
01000002667005990001ESPINHEIRA SANTA                                  
01000002614003900001GRANULADO EM FLOCOS                               
01000002615003990001CHOCO BOLL                                        
01000002668003480001FARINHA DE BERINGELA                              
01000002669002990001FRUTAS CRISTALIZADAS                              
01000002670005250001GOTAS DE CHOCOLATE                                
01000002671002990001GRANOLA SEM AÇUCAR                                
01000002672004780001PÓ DE GUARANA                                     
01000002494001299001PANETONE FRUTA                                    
01000002673003290001MANJERICĂO                                        
01000002674002000001SPIRULINA                                         
01000002675011000001TEMPERO SIRIO                                     
01000002676002450001TOMILHO                                           
01000002891000599001BETERRABA                                         
01000002920000899001ABOBRINHA                                         
01000002851000649001BANANA PRATA                                      
01000002852000499001BANANA NANICA                                     
01000002853001349001CHUCHU                                            
01000002847000399001LARANJA PERA                                      
01000002848000949001LARANJA LIMA                                      
01000002849000890001TOMATE                                            
01000002854000450001CENOURA                                           
01000002855001549001VAGEM                                             
01000002877000600001TOMATE CEREJA                                     
01000002892000769001MELĂO                                             
01000002856000899001PIMENTĂO                                          
01000002893000399001ABOBORA                                           
01000002857001890001PIMENTĂO COLORIDO                                 
01000002858000850001MORANGO                                           
01000002859000399001MELANCIA                                          
01000002694007990001LEITE DE COCO                                     
01000002860001190001PERA                                              
01000002861001499001MARACUJA                                          
01000002862001500001UVA                                               
01000002863000599001PEPINO CAIPIRA                                    
01000002865001150001MAÇĂ                                              
01000002866000499001BATATA DOCE                                       
01000002699004990001PAO DE QUEIJO RECHEADO                            
01000002868002169001UVA ROSADA 1,500G                                 
01000002869001150001UVA VERDE                                         
01000002898000599001COCO SECO                                         
01000002899001149001MANDIOQUINHA  SALSA                               
01000002900000849001INHAME                                            
01000002942001379001GOIABA                                            
01000002921001150001JILO                                              
01000002901001299001BERINGELA                                         
01000002870000650001MANGA                                             
01000002954000399001ABACATE                                           
01000002958000199001BATATA                                            
01000002991001349001PEPINO JAPONES                                    
01000002963000300001COUVE PICADA                                      
01000003021000749001POCAN                                             
01000003064002000001SALGADO C/50UNI                                   
01000003201000500001PĂO DE BATATA RECHEADO                            
01000003243006990001castanha de caju caramelizada                     
01000003244005500001COCO RALADO EM FLOCOS                             
01000003314002100001BOLO INDIANO                                      
01000003333003500001BOLO FUBA CREMOSO                                 
01000003424000500001SALGADO ASSADO                                    
01000003428003490001presunto aurora                                   
01000003380001400001OVO CAIPIRA 12UN                                  
01000003381000700001OVO CAIPIRA C\6 UN                                
01000003382000125001OVO CAIPIRA                                       
01000003434003500001ENROLADINHO DE SALSICHA                           
01000003444002490001apresuntado perdigăo lanche                       
01000003460002500001SALGADO CONGELADO 50UNI                           
01000003475004800001MUSSARELA RANCHO DE MINAS                         
01000003423000500001BAGUETE DA CASA                                   
01000003495004100001QUEIJO MINAS FRESCAL SERRAMAR                     
01000003515000250001PAO CANUDO                                        
01000003516000500001SALGADO FOLHADO                                   
01000003517000500001SALGADO CROASSAN                                  
01000003518000400001ROCAMBOLE                                         
01000003426000300001BROA GOTA CHOCOLATE                               
01000003561000500001ROSCA DE AÇUCAR                                   
01000003562000600001ROSCA DE CREME                                    
01000003580000600001PAO TATU                                          
01000003526000250001FATIA HUNGARA C/ CHOCOLATE                        
01000003485005800001MUSSARELA CRISTAL LAT                             
01000003582000600001ROSCA DE COCO                                     
01000003502000250001BOLO DE BANANA CARAMELIZADO                       
01000003504000350001BOLO DE BANANA CARAM                              
01000003586003900001MINI SALGADO                                      
01000003615022500001CHÁ VALERIANA                                     
01000003616003990001DENTE DE LEĂO                                     
01000003617012750001ESTRELA DE ANIS                                   
01000003618006990001TEMPERO PEGA MARIDO                               
01000003453001600001TORTA DOCE                                        
01000003633002500001MINI PĂO DE FRIOS                                 
01000003677000400001PĂO SOVADO                                        
01000003725001399000CAJU                                              
01000003678000700001massa de pizza da casa c/ 2 un                    
01000003762000350001MASSA DE PIZZA                                    
01000003608006990001CAROLINA                                          
01000003802000040001MINI PAO DE SAL                                   
01000003803000050001MINI PAO CARECA                                   
01000003815055000001CREATINA MONOHIDRATADA                            
01000003811002390001APRESUNTADO REZENDE                               
01000003718000500001PIZZA PEDAÇO                                      
01000003857001290001mini păo de sal                                   
01000003859001500001bolo prestigio                                    
01000003860000750001bolo laranja s cobertura                          
01000003884000250001BROA C/ GOIABADA                                  
01000003885001350001FUBA C/ERVA DOCE                                  
01000003854001300001BOLO  C/ CALDA                                    
01000003855001800001BOLO REDONDO C COBERTURA                          
01000003876002200001APRESUNTADO SEARA                                 
01000003944000800001TORTA CHEESECAKE                                  
01000003945001500001LINGUIÇA FINA MISTA                               
01000003906001200001BOLO DE POTE                                      
01000003907001375001TORTA HOLANDESA                                   
01000003978005990001AZEITONA COM CAROÇO                               
01000003979003990001AZEITONA FATIADA                                  
01000003980009900001CEREJA EM CALDA C/ CABO                           
01000003987014990001NOZ MOSCADA BOLA                                  
01000003942000500001PUDIM PEDAÇO                                      
01000003943002500001PUDIM INTEIRO                                     
01000004038000500001mousse                                            
01000004042001490001mortadela rezende                                 
01000004057000700001BOLO INDIANO                                      
01000004058000300001PUDIM DE PĂO                                      
01000004059000125001PAO INTEGRAL                                      
01000004060000125001PĂO DE MILHO                                      
01000004024001500001farofa caseira                                    
01000003970000100001SEMENTE DE GIRASOL                                
01000003971001450001GOMA DE TAPIOCA                                   
01000004135002200001CURRY                                             
01000004122000200001PAO CASEIRO                                       
01000004023002200001bolo redondo brig grande                          
01000004143007990001AMENDOA CRUA                                      
01000004288001500001MORTADELA AURORA                                  
01000004295000400001bolo de laranja                                   
01000003338000150001PĂO DE HOT DOG                                    
01000004314014000001ORA PRO NOBIS                                     
01000004315004750001FARINHA DE MAÇA                                   
01000004316006400001BETERRABA EM PO                                   
01000003968000500001FATIA DE BOLO DE CENOURA C/ CHOC                  
01000004339006900001PIMENTA DO REINO BRANCA                           
01000004386001490001SALSICHA RESFRIADA SEARA                          
01000004361000600001ENROLADO DE FRANGO                                
01000004363000600001ENROLADO DE CALABRESA                             
01000004434000650001CUP COKES                                         
01000004435000800001MOUSSE                                            
01000004436001950001FATIA DE BOLO FESTA                               
01000004437000200001DOCINHOS                                          
01000004450000990001PĂO INTEGRAL 7 GRĂOS                              
01000004462005490001PALITO DE PARMESĂO                                
01000004461003000001PUDIM                                             
01000004441000950001TEMPERO CASEIRO                                   
01000004481003790001PRESUNTO PERDIGĂO                                 
01000004464000300001PĂO DE QUEIJO PARMESĂO                            
01000004541000500001PIZZA FATIA CALABRESA                             
01000004514002250001apresuntado aurora                                
01000004580003100001FIBRA DE MAÇA                                     
01000004515000649001CEBOLA ROXA                                       
01000004581009990001CEVADA SOLUVEL                                    
01000004582001690001GERMEN DE TRIGO                                   
01000004583002250001FIBRA DE MARACUJA                                 
01000004584007500001FLOR  DE SAL                                      
01000004595002000001BOLO REDONDO DE LARANJA                           
01000004618001299001SALSICHA PIF PAF                                  
01000004526011900001CACAU EM PO 100%                                  
01000004527008500001BALA FINI MINHOCA                                 
01000004603003190001PRESUNTO COZIDO MAGRO SEARA                       
01000004827000499001PELE SUINA                                        
01000004626000650001DONUTS                                            
01000004628000600001BAURU ASSADO                                      
01000004629004850001CHIPITA DE GOIABA                                 
01000004630000500001PĂO DE BATATA DE FRANGO C/ REQ                    
01000004631000600001SALGADO ASSADO                                    
01000004632001990001PRIME RIB SUÍNO                                   
01000004653007990001PICANHA                                           
01000004633000650001CROISSANT PRESUNTO C/ MUSSARELA                   
01000004634000850001MINI TORTA DE FRANGO C/REQUEIJĂO                  
01000004491000600001BOLO MILHO VERDE CREMOSO                          
01000004654005690001MAMINHA                                           
01000004655008290001MIOLO DE ALCATRA                                  
01000004656004499001ALCATRA EM PEÇA                                   
01000004657006290001CONTRA FILE                                       
01000004658004500001CONTRA FILE EM PEÇA                               
01000004659004690001COXĂO DURO                                        
01000004660002990001COXĂO DURO EM PEÇA                                
01000004713000699001COUVE FLOR                                        
01000004661004690001LAGARTO                                           
01000004662005990001ALCATRA COM MAMINHA                               
01000004663003990001CHULETA DE CONTRA FILE                            
01000004664008990001FILE MIGNOM                                       
01000004665002990001CAPA DE FILE                                      
01000004666003490001ACEM                                              
01000004667003790001PALETA                                            
01000004668003490001PEIXINHO                                          
01000004719000600001TRUFA                                             
01000004669003690001PEITO BOVINO                                      
01000004670002690001COSTELA DE RIPA                                   
01000004671002490001COSTELA PONTA DE AGULHA                           
01000004672002390001COSTELA DE PEITO                                  
01000004673002890001CHULETA PONTA DE AGULHA                           
01000004674002290001CHULETA GAUCHA                                    
01000004675003490001PICADĂO                                           
01000004676001690001FIGADO BOVINO                                     
01000004677001990001BUCHO                                             
01000004678002990001RABO                                              
01000004679001390001MOCOTO                                            
01000004742001690001coxinha da asa temperada                          
01000004744002690001MEIO DA ASA TEMPERADA                             
01000004680000999001FRANGO INTEIRO                                    
01000004743001490001frango a passarinho temperado                     
01000004681001690001PEITO COM OSSO                                    
01000004739002990001LOMBO SUINO                                       
01000004682002100001PEITO SEM OSSO                                    
01000004755000250001MEIO REPOLHO                                      
01000004611000650001BOLO DE CENOURA CASEIRO                           
01000004770001550001TORTA CHEESECAKE FRUTAS VERMELHA                  
01000004683000899001COXA SOBRECOXA                                    
01000004684001490001SOBRECOXA                                         
01000004685001590001COXINHA DA ASA                                    
01000004686001690001ASA DE FRANGO                                     
01000004687002290001MEIO DA ASA                                       
01000004688000890001MOELA                                             
01000004689000699001FIGADO                                            
01000004690001290001FRANGO A PASSARINHO                               
01000004691002950001CORAÇAO                                           
01000004692000890001PÉ DE FRANGO                                      
01000004693002290001TOICINHO                                          
01000004694002690001BARRIGA                                           
01000004695002990001COSTELINHA                                        
01000004696002490001BISTECA                                           
01000004697002290001BIFE DE PERNIL                                    
01000004698001990001PERNIL PICADO                                     
01000004699002990001COSTELINHA COM COURO                              
01000004700001790001PERNIL COM OSSO                                   
01000004701002990001PERNIL SEM OSSO                                   
01000004702002290001PALETA SUINA PARA CHURRASCO                       
01000004703001490001PERNIL FATIADO COM OSSO                           
01000004704001690001JOELHO                                            
01000004705000999001PÉ SUÍNO                                          
01000004706004890001MILANESA BOVINA                                   
01000004707003690001MILANESA DE FRANGO                                
01000004708003990001ALMONDEGA                                         
01000004709004490001BIFE A ROLE                                       
01000004594001900001PCT MINI ASSADO                                   
01000004792002690001linguiça fina de lombo                            
01000004828002700001PIMENTA                                           
01000004793002990001linguiça fina pernil                              
01000004794002890001linguiça clabresa com pimenta                     
01000004795002890001linguiça pura de pernil                           
01000004813000600001BOLO DE LEITE NINHO                               
01000004839002990001LINGUIÇA DE ALHO PORO COM BACON                   
01000004850002890001linguiça queijo com azeitona                      
01000004762001499001PIZZA DA CASA                                     
01000004773000500001EMPANADA DE CARNE                                 
01000004876002690001LINGUIÇA MISTA                                    
01000004910002990001COPA LOMBO                                        
01000004783001350001TORTA HOLANDESA                                   
01000004814000450001ESPETINHO BOVINO                                  
01000004788000900001ESPETINHO DE PICANHA                              
01000004924005990001picanha congelada                                 
01000004925001990001FILE DE COXA TEMPERADA                            
01000004822002490001LINGUIÇA FINA DE ALHO                             
01000004730004690001COXĂO MOLE                                        
01000004731002290001FILÉ DE PEITO DE FRANGO                           
01000004733002990001OSSOBUGO                                          
01000004734004490001PATINHO                                           
01000004735003490001MIOLO DA PALETA                                   
01000004736002690001ASSADOS DE TIRAS DE COSTELA                       
01000004737003490001MUSCULO                                           
01000004934000599001BATATA ASTERIX                                    
01000004815000500001ESPETINHO DE CORAÇĂO                              
01000004789000600001ESPETINHO DE TULIPA                               
01000004816000900001ESPETINHO DE MEDALHĂO DE FRANGO                   
01000004817000800001ESPETINHO DE MEDALHĂO DE ALCATRA                  
01000004818000350001ESPETINHO DE FRANGO                               
01000004943000800001ESP MEDALHĂO DE QUEIJO COALHO                     
01000004914002690001LING C/ PIM BIQUINHO                              
01000004884000400001ESPETINHO DE KAFTA                                
01000004819000400001ESPETINHO DE LOMBO                                
01000004741004490001FRALDINHA                                         
01000004888001990001SUĂN                                              
01000004907003990001COXĂO DURO RECHEADO E TEMPERADO                   
01000004908005690001LAGARTO RECHEADO E TEMPERADO                      
01000004801000350001ESPETINHO DE PANCETA                              
01000004967002990001CARNE MOÍDA DE BANDEIJA                           
01000004851002690001PICANHA SUÍNA                                     
01000005031000150001PĂO CARACOL                                       
01000004852001049001BOLO CONFEITADO EM FATIA                          
01000004853005000001BOLO RED VELVET REDONDO                           
01000004854000600001BOLO DOCE DE LEITE C/ AMEIXA PDC                  
01000004855005000001BOLO DOCE DE LEITE C/ AMEIXA RED                  
01000005032000150001TRANCINHA COM CREME                               
01000005033000150001BAGUETINHA DE CREME                               
01000005034000250001BENGALA COM CREME                                 
01000005035000125001PĂO TATUZINHO                                     
01000005036000300001PĂO TRANÇA                                        
01000005037000300001PĂO CHINES                                        
01000005038000600001PĂO DO PADRE C/ AÇUCAR                            
01000005055002690001LINGUIÇA PERNIL (DEDO DE MOÇA )                   
01000005056003690001BANANINHA DO CONTRA FILÉ                          
01000005058004990001mini păo de queijo recheado                       
01000004920000200001CHIPA                                             
01000005093000450001PĂO DE ALHO                                       
01000005102001299001GENGIBRE                                          
01000004922008790001CHÁ QUEBRA PEDRA                                  
01000004923019790001TRIBULUS TERRESTRE                                
01000005097000250001PĂO DE CEBOLA                                     
01000005098000600001TORTA DE FRIOS                                    
01000005003001790001TOICINHO PICADO                                   
01000005126002490001LINGUIÇA FINA C/ PIMENTA                          
01000005149005490001SALSA, CEBOLA E BACON                             
01000005265000330001ESPETINHO                                         
01000005295000175001PRETZEL                                           
01000005319004290001CUPIM                                             
01000005301000175001PĂO MINUTO                                        
01000005333000200001MARIA MOLE                                        
01000005324000400001ESPETINHO DE LINGUIÇA                             
01000005302000750001TRANÇA DE FRIOS                                   
01000005303000750001TRANÇA DOCE                                       
01000005195001000001LANCHE NATURAL                                    
01000005237005490001SHORT RIB BOVINO                                  
01000005188002990001PANCETA DE ROLO                                   
01000005346000500001ESPETINHO DE ALCATRA                              
01000005386000750001POLPA DE FRUTA                                    
01000005398002890001PANCETA PRA CHURRASCO                             
01000005278002990001FRANGO TEMP CONG SEARA FIESTA                     
01000005337001990001CORTES DE LEITĂO                                  
01000005432002890001LINGUIÇA ROMEU E JULIETA                          
01000005460001000001BAGUETE RECHEADA                                  
01000005461001350001BAGUETE GRANDE PT DE PERU                         
01000005406001490001CEVADA                                            
01000005369000150001MINI CANUDO RECHEADO                              
01000005390002000001BOLINHO DE CHUVA                                  
01000005505000899001BANANA DA TERRA                                   
01000005455002990001PICANHA SUÍNA TEMPERADA                           
01000005544000900001QUICHE DE ESPINAFRE                               
01000005576000700001TORTA                                             
01000005469000700001BAGUETE                                           
01000005575002490001COSTELA TEMPERADA                                 
01000005608000500001SONHO ABERTO                                      
01000005609000500001SONHO ABERTO                                      
01000005620000990001PĂO DE LEITE NINHO                                
01000005589000300001MINEIRINHO                                        
01000005597000350001CANGALA                                           
01000005631003690001PIRULITO FR FRALDINHA                             
01000005634000100001rosquinha                                         
01000005635003490001PEITO DE FRANGO SADIA FATIADO                     
01000005621000800001PĂO RECHEADO                                      
01000005639001990001MORTADELA GOURMET SEARA DEFUMADA                  
01000005646004490001BIFE ANCHO                                        
01000005632000350001ROSQUINHA DE PINGA                                
01000005655000200001PĂO BRIOCHI                                       
01000005647005990001bife ancho                                        
01000005656000950001PĂO BRIOCHI SALGADO                               
01000005672000125001MINI SONHO                                        
01000005749005690001PALETA DE CORDEIRO                                
01000005750005990001TIBONE DE CORDEIRO                                
01000005781001990001MORTADELA SADIA DEFUMADA                          
01000005718000250001LÍNGUA DE SOGRA                                   
01000005719000200001BAQUETE DOCE                                      
01000005895000699001TEMPERO 200G                                      
01000005910002490001LINGUIÇA TOSCANA SEARA                            
01000005909002890001PAIO SEARA                                        
01000005808006990001CARRE DE CORDEIRO                                 
01000005809007990001ASSADOS DE TIRAS DE CONTRA FILÉ                   
01000005881001990001ORELHA SUÍNA SALGADA                              
01000005882002790001RABO SUÍNO SALGADO                                
01000005883002790001COSTELINHA SUÍNA SALGADA                          
01000005884001490001PÉ SUÍNO SALGADO                                  
01000005911005990001PICANHA FATIADA                                   
01000005925000890001LARANJA BHAIA                                     
01000005760001990001MORT PERDIGĂO TRADICIONAL                         
01000006003004000001SALSA DESIDRATADA                                 
01000006004008000001CARQUEIJA DOCE                                    
01000005978004490001COSTELINHA DE CORDEIRO                            
01000005818002690001COSTELA BOVINA 4 OSSOS                            
01000006005003000001EXTRATO DE SOJA                                   
01000006006007000001TEMPERO MINEIRO                                   
01000006007009800001LOURO EM PO                                       
01000005720000500001BOLO GELADO                                       
01000006088000700001BOMBA DE CHOCOLATE                                
01000006113001999001COSTELA PICADA                                    
01000006150016990001KIT DOS PAIS                                      
01000005962001000001COXINHA DE MORANGO                                
01000005998000750001PĂO DE FORMA C/ FRIOS                             
01000005850001290001CARQUEJA DOCE                                     
01000005851003480001SALSA DESIDRATADA                                 
01000005852002500001AMENDOIM GRAUDO TORRADO E SALGADO                 
01000005853001890001LOURO EM PÓ                                       
01000005854001965001EXTRATO DE SOJÁ NUTRIALY                          
01000005855002930001CHOCOLATE EM PÓ SOLUVEL PADRE                     
01000005856001000001GOMA DO NORTE                                     
01000006276002290001LINGUIÇA TOSCANA FIRMESA                          
01000006202002690001LINGUIÇA CUIBANA                                  
01000006174000500001ROSCA DOCE                                        
01000006175000600001PCT DE MINI PĂO DE CENOURA                        
01000006176000100001PĂO CARACOL                                       
01000005872002690001LING ARTESANAL DE TORRESMO                        
01000006250005550001queijo meia cura serra de minas                   
01000006025000700001BALA SENSAÇĂO DUTACHO 100G                        
01000006307000499001HAMBURGUER ARTESANAL 120G                         
01000006263006490001ASSADO DE TIRA DE PICANHA                         
01000006218000150001ESFIRRINHA                                        
01000006367005290001contra file                                       
01000006368004890001ALCATRA COM MAMINHA                               
01000006369004490001CUPIM                                             
01000006370002290001PANCETA                                           
01000006371002590001COSTELA JANELA                                    
01000006372002190001LINGUIÇA TOSCANA                                  
01000006325008800001chips de mandioquinha                             
01000006404001369001KIWI                                              
01000006418001999001PEITO SEM OSSO                                    
01000006445005990001PICANHA PARAGUAIA                                 
01000006257000650001CONE TRUFADO                                      
01000006271003690001MUSSARELA MANDAKA                                 
01000006679003100001BOLO CASEIRO                                      
01000006680002999001BOLO CASEIRO                                      
01000006705002290001CORTES DE LEITĂO                                  
01000006718001699001NECTARINA                                         
01000006681002450001BOLO CASEIRO                                      
01000006611003990001COXINHA DA ASA EMPANADA                           
01000006767000300001BATATA PIRULITO                                   
01000006754006500001QUEIJO MINAS PADRĂO SERRAMAR                      
01000006782000600001BAGUETE PRESUNTO E QUEIJO                         
01000006831000350001BOLO DE BANANA(PEDAÇO)                            
01000006704005990001MAMINHA RECHEADA                                  
01000006863001999001BOLO CASEIRO                                      
01000006860003490001PRESUNTO MIOGNONETO SADIA                         
01000006683002450001BOLO CASEIRO                                      
01000006684003399001BOLO CASEIRO                                      
01000006685003100001BOLO CASEIRO                                      
01000006902000249001MORANGA                                           
01000006934000899001BATATA DOCE BRANCA                                
01000006846000400001LANCHE NATURAL                                    
01000006847000250001NINI LANCHE NATURAL                               
01000006893004290001FILÉ DE PANGA EMPANADO                            
01000006955003990001MINI BROA                                         
01000006985000600001SALGADO INTEGRAL                                  
01000006949002650001PRESUNTO PERDIGĂO EMBUTIDO DE PER                 
01000007118001799001ATEMOIA                                           
01000006982000999001PESCOÇO DE FRANGO                                 
01000007151002490001CARNE SECA SUINA                                  
01000007143000250001LUA DE MEL                                        
01000006749000150001PĂO DE HAMBURGUER 1 UNI                           
01000007243005490001MUSSARELA CPMEVAP ZERO LACTOSE                    
01000008246000799000MAMAO FORMOSA                                     
01000007268002890001linguiça de pernil pimnta bodinho                 
01000008199003890000MUSSARELA COMEVAP                                 
01000007512000785000MASSA DE MANDIOCA CONGELADA                       
01000007362000250001MINI ESFIHA                                       
01000008280003990000BACON EM PEDAÇO SEARA                             
01000007211003490001FILEZINHO DE FRANGO BAITA EMPANAD                 
01000007502000749001LARANJA MORGOTE                                   
01000007435000800001MEDALHĂO DE ROMEU E JULIETA                       
01000007631000150001PĂO DE LARANJA                                    
01000007456001999001LINGUIÇA TOSCANA FRESCAL PERDIGĂO                 
01000007490000600001PĂO DE BRIOCHE RECHEADO                           
01000007491000700001PĂO DE TORRESMO                                   
01000007982000150000PĂO DE SAL COM QUEIJO                             
01000007545005990001TEMPERO PARA FEIJĂO                               
01000007317000500001SALADA DE FRUTAS                                  
01000007298002990001CAÇĂO EM POSTA                                    
01000007633000150001PĂO DE CENOURA                                    
01000007534002690000COSTELINHA TEMPERADA                              
01000007686000350001PĂO DE FRIOS MASSA BATATA                         
01000007687000150001PĂO DE BATATA                                     
01000007704000450001CUCA DE BANANA                                    
01000007688000550001PIZZA ENROLADA MASSA DE BATATA                    
01000007679000100001MOLHO ARTESANAL BLACK                             
01000007706006149001QJO MONTANHĘS SERRA DO QUILOMBO                   
01000007707006149001QUEIJO ARTESANAL DINART JR                        
01000007336002490001LINGUIÇA CALABRESA RESENDE                        
01000007574002990001LINGUIÇA QUEIJO PIMENTA                           
01000007364000850001FATIA DE BOLO SALGADO                             
01000007908000950000ROSCA RECHEADA                                    
01000007799001500000GORDURA DE PORCO CASEIRA                          
01000007720000500000POLPA DE MORANGO                                  
01000007873002290000FILEZINHO DE SASSAMI                              
01000007809002990000PRIME RIB SUINO                                   
01000007663001399001AMEIXA AMARELA                                    
01000007810002990000TIBONE SUINO                                      
01000007887003390000FILE DE COXA EMPANADA                             
01000007988002450000AVE FIESTA SEARA                                  
01000008064011000000DOCE SOBREMESA                                    
01000008065007500000DOCE SOBREMESA                                    
01000008100000849000BANANA MAÇA                                       
01000008165001990000AMENDOIN SEM PELE E SEM SAL                       
01000008247013990000QUEIJO PARMESAO COMEVAP                           
01000008076001349000LICHIA                                            
